:100000000C9431000C944E000C944E000C944E0055
:100010000C944E000C944E000C944E000C944E0028
:100020000C944E000C944E000C944E000C944E0018
:100030000C944E000C944E000C944E000C944E0008
:100040000C944E000C944E000C944E000C944E00F8
:100050000C944E0058049004C804E4043C04740456
:10006000AC0411241FBECFE5D8E0DEBFCDBF10E049
:10007000A0E6B0E0ECE6F5E102C005900D92A037F5
:10008000B107D9F720E0A0E7B0E001C01D92A23788
:10009000B207E1F70E94830A0C94B40A0C940000A2
:1000A000CF93DF9300D0CDB7DEB79A838983898160
:1000B0009A81909371008093700029E230E08981E9
:1000C0009A81FC0181819281A381B481F9018083AD
:1000D00089E290E029E230E0F90122812D7FFC01E4
:1000E000228389E290E029E230E0F9012181206158
:1000F000FC01218389E290E029E230E0F9012181CD
:100100002860FC01218389819A81FC018681882FE6
:1001100090E081309105C9F08230910549F1892B39
:1001200009F042C080E490E020E430E0F901208151
:100130002068FC01208380E490E020E430E0F901B5
:1001400020812F7CFC0120832FC080E490E020E4FC
:1001500030E0F90120812068FC01208380E490E0F8
:1001600020E430E0F90120812063FC0120831CC0E1
:1001700080E490E020E430E0F90120812068FC0177
:10018000208380E490E020E430E0F90120812F7E9C
:10019000FC01208380E490E020E430E0F90120813C
:1001A0002062FC012083000089819A81FC01858105
:1001B000882F90E08230910509F45AC08330910570
:1001C0002CF4009759F0019771F1C1C0833091056B
:1001D00009F473C0049709F495C0B9C080E490E0B5
:1001E00020E430E0F90120812068FC01208389E2CD
:1001F00090E029E230E0F90121812B7FFC0121838D
:1002000080E490E020E430E0F90120812D7FFC01C2
:10021000208380E490E020E430E0F90120812B7F0E
:10022000FC01208394C080E490E020E430E0F901F8
:1002300020812068FC01208389E290E029E230E0FF
:10024000F90121812B7FFC01218380E490E020E4EF
:1002500030E0F90120812260FC01208380E490E0FD
:1002600020E430E0F90120812B7FFC0120836FC066
:1002700080E490E020E430E0F90120812068FC0176
:10028000208389E290E029E230E0F90121812B7F8F
:10029000FC01218380E490E020E430E0F90120813A
:1002A0002D7FFC01208380E490E020E430E0F90120
:1002B00020812460FC0120834AC080E490E020E497
:1002C00030E0F90120812068FC01208389E290E080
:1002D00029E230E0F90121812B7FFC01218380E4B8
:1002E00090E020E430E0F90120812260FC012083CD
:1002F00080E490E020E430E0F90120812460FC01FA
:10030000208325C080E490E020E430E0F9012081E2
:100310002068FC01208389E290E029E230E0F901C5
:1003200021812460FC01218380E490E020E430E01E
:10033000F90120812260FC01208380E490E020E428
:1003400030E0F90120812460FC01208300008981D4
:100350009A81FC018781882F90E0009719F001971E
:10036000A1F026C080E490E020E430E0F901208193
:100370002068FC01208380E490E020E430E0F90173
:100380002081277FFC01208313C080E490E020E4DB
:1003900030E0F90120812068FC01208380E490E0B6
:1003A00020E430E0F90120812860FC012083000076
:1003B00089819A81FC018081813099F480E490E008
:1003C00020E430E0F90120812068FC01208380E4F2
:1003D00090E020E430E0F90120812064FC012083DA
:1003E00018C089819A81FC018081882391F480E47E
:1003F00090E020E430E0F90120812068FC012083B6
:1004000080E490E020E430E0F90120812F7BFC01C2
:10041000208389819A81FC018085882F90E081303A
:10042000910509F445C0823091051CF4892B41F0F7
:1004300077C08230910501F1039709F455C070C06F
:1004400089E290E029E230E0F90121812F77FC0177
:10045000218389E290E029E230E0F90121812F7BBC
:10046000FC0121838FE590E02FE530E0F901208148
:100470002F77FC01208354C089E290E029E230E02C
:10048000F90121812068FC01218389E290E029E2C1
:1004900030E0F90121812F7BFC0121838FE590E081
:1004A0002FE530E0F90120812068FC01208338C06D
:1004B00089E290E029E230E0F90121812F77FC0107
:1004C000218389E290E029E230E0F9012181206472
:1004D000FC0121838FE590E02FE530E0F9012081D8
:1004E0002068FC0120831CC089E290E029E230E012
:1004F000F90121812068FC01218389E290E029E251
:1005000030E0F90121812064FC0121838FE590E036
:100510002FE530E0F90120812068FC0120830000F4
:1005200000000F900F90DF91CF910895CF93DF934C
:1005300000D0CDB7DEB789836A838A81882359F0DA
:10054000000089E290E0FC018281882F90E08072B7
:100550009927892BB1F389E290E0FC01818186958E
:100560008695882F90E081709927892B71F089E218
:1005700090E0FC01818189E290E0FC01118289E236
:1005800090E02981FC01238305C089E290E0298164
:10059000FC01238300000F900F90DF91CF9108950D
:1005A000CF93DF9300D01F92CDB7DEB78B831A8233
:1005B00019828B81882339F0000089E290E0FC01E8
:1005C00082818823D4F789E290E0FC0181818695BD
:1005D0008695882F90E081709927892BE9F089E230
:1005E00090E0FC0181818695882F90E0982F8827E4
:1005F0009C0189819A81822B932B9A83898389E23A
:1006000090E0FC018381882F90E029813A81822B40
:10061000932B9A8389830CC089E290E0FC0183814B
:10062000882F90E029813A81822B932B9A838983AA
:1006300089819A810F900F900F90DF91CF9108954B
:10064000CF93DF9300D0CDB7DEB79A8389831AC0EA
:10065000000089E290E0FC01828182958695877096
:10066000882F90E081709927892B99F389819A814D
:10067000FC01808161E00E94960289819A81019645
:100680009A83898389819A81FC018081882301F77B
:10069000000089E290E0FC01828182958695877056
:1006A000882F90E081709927892B99F389E290E057
:1006B0002DE0FC01238300000F900F90DF91CF917C
:1006C0000895CF93DF9300D0CDB7DEB79A838983A7
:1006D000000089E290E0FC018281881F8827881F42
:1006E000882F90E081709927892B99F389E290E017
:1006F000FC01238189819A81FC01208389819A816F
:10070000FC0180818D3031F089819A8101969A8334
:100710008983DECF000000000F900F90DF91CF9112
:100720000895CF93DF9300D0CDB7DEB79A83898346
:100730008091700090917100FC0181859285FC018F
:10074000099500000F900F90DF91CF910895CF93FE
:10075000DF9300D000D01F92CDB7DEB79D838C838E
:100760008C819D81FC0180818130A9F584E08983A1
:1007700081E08A83CE010196BC0186E390E00E946D
:100780003B0585E0898381E08A83CE010196BC0127
:1007900086E390E00E943B0586E089831A82CE01C1
:1007A0000196BC0186E390E00E943B0587E08983C7
:1007B00081E08A83CE010196BC0186E390E00E942D
:1007C0003B058DE290E02DE230E0F90120812061CF
:1007D000FC01208338C08C819D81FC0180818823AD
:1007E00091F584E089831A82CE010196BC0186E3EB
:1007F00090E00E943B0585E089831A82CE01019634
:10080000BC0186E390E00E943B0586E0898381E09D
:100810008A83CE010196BC0186E390E00E943B05ED
:1008200087E089831A82CE010196BC0186E390E0BD
:100830000E943B058DE290E02DE230E0F90120813D
:100840002F7EFC0120838C819D81FC018481882F77
:1008500090E0092E000CAA0BBB0B40E050E026E014
:1008600030E0841B950B2817390708F4C9C0865D52
:100870009F4FFC010C94AE0A8DE290E02DE230E037
:10088000F90120812E7FFC0120838DE290E02DE292
:1008900030E0F90120812D7FFC0120838DE290E082
:1008A0002DE230E0F90121812160FC012183A8C003
:1008B0008DE290E02DE230E0F90120812E7FFC01F5
:1008C00020838DE290E02DE230E0F90120812D7F40
:1008D000FC0120838DE290E02DE230E0F9012181DE
:1008E0002E7FFC0121838CC08DE290E02DE230E070
:1008F000F90120812160FC0120838DE290E02DE24E
:1009000030E0F90120812D7FFC0120838DE290E011
:100910002DE230E0F90121812160FC01218370C0CA
:100920008DE290E02DE230E0F90120812160FC01B0
:1009300020838DE290E02DE230E0F90120812D7FCF
:10094000FC0120838DE290E02DE230E0F90121816D
:100950002E7FFC01218354C08DE290E02DE230E037
:10096000F90120812E7FFC0120838DE290E02DE2B1
:1009700030E0F90120812260FC0120838DE290E0CB
:100980002DE230E0F90121812160FC01218338C092
:100990008DE290E02DE230E0F90120812E7FFC0114
:1009A00020838DE290E02DE230E0F9012081226089
:1009B000FC0120838DE290E02DE230E0F9012181FD
:1009C0002E7FFC0121831CC08DE290E02DE230E0FF
:1009D000F90120812160FC0120838DE290E02DE26D
:1009E00030E0F90120812260FC0120838DE290E05B
:1009F0002DE230E0F90121812E7FFC0121830000EE
:100A00008DE290E02DE230E0F90120812064FC01CC
:100A1000208300000F900F900F900F900F90DF91A8
:100A2000CF910895CF93DF931F92CDB7DEB789831F
:100A30008DE290E02981FC01228300008DE290E0AC
:100A4000FC0181818823D4F789810F90DF91CF91B8
:100A50000895CF93DF93CDB7DEB700008DE290E02D
:100A6000FC0181818823D4F78DE290E0FC01828132
:100A7000DF91CF910895CF93DF9300D000D0CDB711
:100A8000DEB79A8389837C836B838B819C81FC0195
:100A900081818130C9F489819A81FC018181482F4B
:100AA0008B819C81FC018081282F30E081E090E0E7
:100AB00002C0880F991F2A95E2F7842B282F89817D
:100AC0009A81FC0121831FC08B819C81FC01818163
:100AD0008823C9F489819A81FC018181482F8B8107
:100AE0009C81FC018081282F30E081E090E002C0F1
:100AF000880F991F2A95E2F780958423282F8981F2
:100B00009A81FC0121838B819C81FC01828181304F
:100B1000C9F489819A81FC018281482F8B819C8153
:100B2000FC018081282F30E081E090E002C0880F36
:100B3000991F2A95E2F7842B282F89819A81FC013D
:100B400022831FC08B819C81FC0181818823C9F491
:100B500089819A81FC018281482F8B819C81FC01D3
:100B60008081282F30E081E090E002C0880F991F3B
:100B70002A95E2F780958423282F89819A81FC01A8
:100B8000228300000F900F900F900F90DF91CF9174
:100B90000895CF93DF9300D000D0CDB7DEB79B830D
:100BA0008A836C838A819B81FC018081882F90E0FD
:100BB0002C81222F30E002C0959587952A95E2F787
:100BC00081709927892B19F081E0898301C01982EE
:100BD00089810F900F900F900F90DF91CF91089522
:100BE000CF93DF9300D01F92CDB7DEB79B838A836C
:100BF0008A819B81FC018081898389810F900F907C
:100C00000F90DF91CF910895CF93DF9300D000D064
:100C1000CDB7DEB79A8389836B834C838C81813017
:100C2000B1F489819A81FC018281482F8B81282F20
:100C300030E081E090E002C0880F991F2A95E2F72A
:100C4000842B282F89819A81FC01228319C08C81F1
:100C50008823B1F489819A81FC018281482F8B819C
:100C6000282F30E081E090E002C0880F991F2A957C
:100C7000E2F780958423282F89819A81FC012283C1
:100C800000000F900F900F900F90DF91CF9108957B
:100C9000CF93DF9300D01F92CDB7DEB79A838983BD
:100CA0006B8389819A812B81FC01228300000F9044
:100CB0000F900F90DF91CF910895CF93DF9300D0E5
:100CC0001F92CDB7DEB79A8389836B8389819A811E
:100CD000FC018281482F8B81282F30E081E090E059
:100CE00002C0880F991F2A95E2F78427282F89814F
:100CF0009A81FC01228300000F900F900F90DF91EA
:100D0000CF910895CF93DF93CDB7DEB72C970FB671
:100D1000F894DEBF0FBECDBF69877A878B879C872B
:100D200019821A821B821C8228C01D821E821F8289
:100D300018860BC08D819E81AF81B8850196A11D5B
:100D4000B11D8D839E83AF83B8872D813E814F81F6
:100D5000588589859A85AB85BC85281739074A0748
:100D60005B0740F389819A81AB81BC810196A11D0B
:100D7000B11D89839A83AB83BC8329813A814B81DE
:100D80005C8189859A85AB85BC85281739074A0718
:100D90005B0758F200002C960FB6F894DEBF0FBE2A
:100DA000CDBFDF91CF910895CF93DF93CDB7DEB75D
:100DB00040E062E089E390E00E94040662E370E0B4
:100DC00080E090E00E94820641E062E089E390E0EA
:100DD0000E9404060000DF91CF910895CF93DF9326
:100DE00000D01F92CDB7DEB781E0898381E08A838E
:100DF000CE010196BC0189E390E00E943B0582E0B0
:100E0000898381E08A83CE010196BC0189E390E069
:100E10000E943B0584E0898381E08A83CE010196AC
:100E2000BC0189E390E00E943B0585E0898381E075
:100E30008A83CE010196BC0189E390E00E943B05C4
:100E400086E0898381E08A83CE010196BC0189E333
:100E500090E00E943B0587E0898381E08A83CE0190
:100E60000196BC0189E390E00E943B0540E062E00E
:100E700089E390E00E94040640E061E089E390E0AD
:100E80000E94040689E390E02EE7FC012183000024
:100E90000F900F900F90DF91CF910895CF93DF9334
:100EA000CDB7DEB764E170E080E090E00E9482069A
:100EB0000E94EE066FE070E080E090E00E94820603
:100EC0000E94940882E00E94750788E20E947507DC
:100ED00086E00E94750780E80E9475078FE00E94F7
:100EE00075070000DF91CF910895CF93DF931F9294
:100EF000CDB7DEB7898389E390E0FC018281282F9A
:100F000027788981882F90E0807F9927959587950C
:100F1000822B682F89E390E00E94480640E061E060
:100F200089E390E00E94040662E370E080E090E0D4
:100F30000E9482060E94D40689E390E0FC0182812F
:100F4000282F27788981882F90E08F709927880F24
:100F5000991F880F991F880F991F822B682F89E38B
:100F600090E00E94480640E061E089E390E00E9442
:100F7000040662E370E080E090E00E9482060E9436
:100F8000D40600000F90DF91CF910895CF93DF93A7
:100F90001F92CDB7DEB7898389E390E0FC0182819F
:100FA000282F27788981082E000C990B807F99279C
:100FB00095958795822B682F89E390E00E944806DB
:100FC00041E061E089E390E00E94040662E370E0A2
:100FD00080E090E00E9482060E94D40689E390E0BF
:100FE000FC018281282F27788981082E000C990B1B
:100FF0008F709927880F991F880F991F880F991F45
:10100000822B682F89E390E00E94480641E061E06E
:1010100089E390E00E94040662E370E080E090E0E3
:101020000E9482060E94D40600000F90DF91CF91AB
:101030000895CF93DF9300D000D0CDB7DEB79C8367
:101040008B831A82198225C08B819C819C012F5F22
:101050003F4F3C832B83FC0180810E94C60789811E
:101060009A8101969A83898389819A81409729F48C
:1010700060E082E00E949F080CC089819A8180977D
:1010800041F40E94940860E081E00E949F081A8267
:1010900019828B819C81FC0180818823A9F6000044
:1010A0000F900F900F900F90DF91CF910895CF93F5
:1010B000DF9300D01F92CDB7DEB784E089831A8218
:1010C000CE010196BC0189E390E00E943B0585E0DA
:1010D00089831A82CE010196BC0189E390E00E94C7
:1010E0003B0586E089831A82CE010196BC0189E323
:1010F00090E00E943B0587E089831A82CE01019629
:10110000BC0189E390E00E943B0540E061E089E397
:1011100090E00E9404060E94D40600000F900F90F9
:101120000F90DF91CF910895CF93DF93CDB7DEB7C6
:1011300081E00E9475070000DF91CF910895CF9361
:10114000DF9300D0CDB7DEB789836A838981813090
:1011500041F48A81803178F48A8180580E94750731
:101160000AC08981823039F48A81803120F48A81F1
:1011700080540E94750700000F900F90DF91CF916F
:101180000895CF93DF9300D01F92CDB7DEB784E0F0
:10119000898381E08A83CE010196BC0186E390E0D9
:1011A0000E943B0585E0898381E08A83CE01019618
:1011B000BC0186E390E00E943B0586E0898381E0E4
:1011C0008A83CE010196BC0186E390E00E943B0534
:1011D00087E0898381E08A83CE010196BC0186E3A2
:1011E00090E00E943B0582E089831A8281E08B8334
:1011F000CE010196BC0180E390E00E943B0583E0B4
:1012000089831A8281E08B83CE010196BC0180E341
:1012100090E00E943B0584E089831A8281E08B8301
:10122000CE010196BC0180E390E00E943B0585E081
:1012300089831A8281E08B83CE010196BC0180E311
:1012400090E00E943B056FEF86E390E00E94480625
:101250006FEF80E390E00E94480600000F900F902F
:101260000F90DF91CF910895CF93DF9300D000D0FE
:10127000CDB7DEB71A821982D5C041E064E086E3BB
:1012800090E00E94040641E065E086E390E00E9461
:10129000040641E066E086E390E00E94040641E037
:1012A00067E086E390E00E94040689819A81880FB6
:1012B000991F805A9F4FFC018081918140E0682FE7
:1012C00086E390E00E9404061C821B82A1C08B81F1
:1012D0009C81880F991F88599F4FFC0180819181C3
:1012E000682F80E390E00E94C905882309F08BC035
:1012F00000008B819C81880F991F88599F4FFC01AA
:1013000080819181682F80E390E00E94C905882345
:1013100081F389819A818130910531F18230910583
:101320001CF4892B41F06FC082309105A9F103971D
:1013300009F44AC068C08B819C81892B11F487E332
:1013400077C08B819C81019711F488E371C08B81F8
:101350009C81029711F489E36BC08B819C81039778
:1013600009F04AC08FE264C08B819C81892B11F403
:1013700084E35EC08B819C81019711F485E358C0A2
:101380008B819C81029711F486E352C08B819C81F2
:101390000397A1F58AE24CC08B819C81892B11F4C3
:1013A00081E346C08B819C81019711F482E340C0A8
:1013B0008B819C81029711F483E33AC08B819C81DD
:1013C0000397F1F48DE234C08B819C81892B11F459
:1013D00081E22EC08B819C81019711F480E328C0AB
:1013E0008B819C81029711F48DE322C08B819C81BB
:1013F000039741F48BE21CC0000005C0000003C04D
:10140000000001C000008B819C8101969C838B832E
:101410008B819C8104970CF45ACF89819A81019623
:101420009A83898389819A8104970CF426CF8EE46C
:101430000F900F900F900F90DF91CF910895CF9361
:10144000DF9300D01F92CDB7DEB781E08A83198287
:10145000CE010196BC0189E390E00E943B0581E04A
:101460008A8381E08983CE010196BC0189E390E003
:101470000E943B0581E08A8382E08983CE01019648
:10148000BC0189E390E00E943B0581E08A8383E010
:101490008983CE010196BC0189E390E00E943B055F
:1014A00081E08A8384E08983CE010196BC0189E3CF
:1014B00090E00E943B0581E08A8385E08983CE012C
:1014C0000196BC0189E390E00E943B0581E08A839C
:1014D00086E08983CE010196BC0189E390E00E94F9
:1014E0003B0581E08A8387E08983CE010196BC01B8
:1014F00089E390E00E943B0500000F900F900F9051
:10150000DF91CF910895CF93DF93CDB7DEB72797C3
:101510000FB6F894DEBF0FBECDBF0E941F0A81E058
:101520008A8381E08E83CE0102960E94A7031982EE
:1015300011C089810E941205682F89E390E00E9402
:10154000480662E370E080E090E00E9482068981B4
:101550008F5F898389818F3F61F7E9CFEE0FFF1F8E
:0C1560000590F491E02D0994F894FFCF61
:10156C00040005000600070002000300040005004B
:00000001FF
