:020000040800F2
:1000000000280020050200085502000855020008DB
:1000100055020008550200085502000800000000C3
:100020000000000000000000000000005502000871
:1000300055020008000000005502000855020008A3
:100040005502000855020008550200085502000834
:100050005502000855020008550200085502000824
:100060005502000855020008550200085502000814
:100070005502000855020008550200085502000804
:1000800055020008550200085502000855020008F4
:1000900055020008550200085502000855020008E4
:1000A00055020008550200085502000855020008D4
:1000B00055020008550200085502000855020008C4
:1000C00055020008550200085502000855020008B4
:1000D00055020008550200085502000855020008A4
:1000E00055020008550200080000000055020008F3
:1000F0005502000855020008550200085502000884
:100100005502000855020008550200085502000873
:100110005502000855020008550200085502000863
:100120005502000855020008550200085502000853
:1001300010B5054C237833B9044B13B10448AFF321
:1001400000800123237010BD080000200000000083
:10015000A002000808B5034B1BB103490348AFF3E5
:10016000008008BD000000000C000020A002000874
:1001700080B483B000AF204B1B681F4A43F00403D8
:1001800013601E4B1B681A681C4B1B6822F470021C
:100190001A601A4B1B681B68C3F30353DBB2174A80
:1001A000126843F00203D9B2136861F31753136066
:1001B000134B1A68138843F40053138000237B60A9
:1001C00002E07B6801337B607B684CF24F329342E4
:1001D000F7DD0B4B1A6813886FF34D331380002340
:1001E0007B6002E07B6801337B607B684CF24F32BE
:1001F0009342F7DDDCE700BF181002400400002046
:10020000000000200D488546AFF300800C480D49E2
:100210000D4A002302E0D458C4500433C4188C4261
:10022000F9D30A4A0A4C002301E013600432A242C7
:10023000FBD300F011F8FFF79BFFFEE7002800203A
:100240000000002008000020C00200080800002074
:1002500024000020FEE7000070B500250C4E0D4C78
:10026000A41BA410A54209D100F01AF800250A4EDB
:100270000A4CA41BA410A54205D170BD56F8253028
:1002800098470135EEE756F8253098470135F2E7F3
:10029000B8020008B8020008B8020008BC02000852
:1002A000F8B500BFF8BC08BC9E467047F8B500BF63
:0802B000F8BC08BC9E46704733
:0402B80055010008E4
:0402BC003101000804
:0802C0000C0801400408014094
:0400000508000205E8
:00000001FF
