:100000000C9431000C944E000C944E000C944E0055
:100010000C944E000C944E000C944E000C944E0028
:100020000C944E000C944E000C945C050C948D05C1
:100030000C944E000C944E000C944E000C944E0008
:100040000C944E000C944E000C944E000C944E00F8
:100050000C944E007406AC06E406000758069006A1
:10006000C80611241FBECFE5D8E0DEBFCDBF10E02B
:10007000A0E6B0E0E6EBF6E202C005900D92AE37E6
:10008000B107D9F720E0AEE7B0E001C01D92A73874
:10009000B207E1F70E94E20D0C9459130C94000092
:1000A000CF93DF9300D0CDB7DEB79A838983898160
:1000B0009A8190937F0080937E0029E230E08981CD
:1000C0009A81FC0181819281A381B481F9018083AD
:1000D00089E290E029E230E0F90122812D7FFC01E4
:1000E000228389E290E029E230E0F9012181206158
:1000F000FC01218389E290E029E230E0F9012181CD
:100100002860FC01218389819A81FC018681882FE6
:1001100090E081309105C9F08230910549F1892B39
:1001200009F042C080E490E020E430E0F901208151
:100130002068FC01208380E490E020E430E0F901B5
:1001400020812F7CFC0120832FC080E490E020E4FC
:1001500030E0F90120812068FC01208380E490E0F8
:1001600020E430E0F90120812063FC0120831CC0E1
:1001700080E490E020E430E0F90120812068FC0177
:10018000208380E490E020E430E0F90120812F7E9C
:10019000FC01208380E490E020E430E0F90120813C
:1001A0002062FC012083000089819A81FC01858105
:1001B000882F90E08230910509F45AC08330910570
:1001C0002CF4009759F0019771F1C1C0833091056B
:1001D00009F473C0049709F495C0B9C080E490E0B5
:1001E00020E430E0F90120812068FC01208389E2CD
:1001F00090E029E230E0F90121812B7FFC0121838D
:1002000080E490E020E430E0F90120812D7FFC01C2
:10021000208380E490E020E430E0F90120812B7F0E
:10022000FC01208394C080E490E020E430E0F901F8
:1002300020812068FC01208389E290E029E230E0FF
:10024000F90121812B7FFC01218380E490E020E4EF
:1002500030E0F90120812260FC01208380E490E0FD
:1002600020E430E0F90120812B7FFC0120836FC066
:1002700080E490E020E430E0F90120812068FC0176
:10028000208389E290E029E230E0F90121812B7F8F
:10029000FC01218380E490E020E430E0F90120813A
:1002A0002D7FFC01208380E490E020E430E0F90120
:1002B00020812460FC0120834AC080E490E020E497
:1002C00030E0F90120812068FC01208389E290E080
:1002D00029E230E0F90121812B7FFC01218380E4B8
:1002E00090E020E430E0F90120812260FC012083CD
:1002F00080E490E020E430E0F90120812460FC01FA
:10030000208325C080E490E020E430E0F9012081E2
:100310002068FC01208389E290E029E230E0F901C5
:1003200021812460FC01218380E490E020E430E01E
:10033000F90120812260FC01208380E490E020E428
:1003400030E0F90120812460FC01208300008981D4
:100350009A81FC018781882F90E0009719F001971E
:10036000A1F026C080E490E020E430E0F901208193
:100370002068FC01208380E490E020E430E0F90173
:100380002081277FFC01208313C080E490E020E4DB
:1003900030E0F90120812068FC01208380E490E0B6
:1003A00020E430E0F90120812860FC012083000076
:1003B00089819A81FC018081813099F480E490E008
:1003C00020E430E0F90120812068FC01208380E4F2
:1003D00090E020E430E0F90120812064FC012083DA
:1003E00018C089819A81FC018081882391F480E47E
:1003F00090E020E430E0F90120812068FC012083B6
:1004000080E490E020E430E0F90120812F7BFC01C2
:10041000208389819A81FC018085882F90E081303A
:10042000910509F445C0823091051CF4892B41F0F7
:1004300077C08230910501F1039709F455C070C06F
:1004400089E290E029E230E0F90121812F77FC0177
:10045000218389E290E029E230E0F90121812F7BBC
:10046000FC0121838FE590E02FE530E0F901208148
:100470002F77FC01208354C089E290E029E230E02C
:10048000F90121812068FC01218389E290E029E2C1
:1004900030E0F90121812F7BFC0121838FE590E081
:1004A0002FE530E0F90120812068FC01208338C06D
:1004B00089E290E029E230E0F90121812F77FC0107
:1004C000218389E290E029E230E0F9012181206472
:1004D000FC0121838FE590E02FE530E0F9012081D8
:1004E0002068FC0120831CC089E290E029E230E012
:1004F000F90121812068FC01218389E290E029E251
:1005000030E0F90121812064FC0121838FE590E036
:100510002FE530E0F90120812068FC0120830000F4
:1005200000000F900F90DF91CF910895CF93DF934C
:1005300000D0CDB7DEB789836A838A81882359F0DA
:10054000000089E290E0FC018281882F90E08072B7
:100550009927892BB1F389E290E0FC01818186958E
:100560008695882F90E081709927892B71F089E218
:1005700090E0FC01818189E290E0FC01118289E236
:1005800090E02981FC01238305C089E290E0298164
:10059000FC01238300000F900F90DF91CF9108950D
:1005A000CF93DF9300D01F92CDB7DEB78B831A8233
:1005B00019828B81882339F0000089E290E0FC01E8
:1005C00082818823D4F789E290E0FC0181818695BD
:1005D0008695882F90E081709927892BE9F089E230
:1005E00090E0FC0181818695882F90E0982F8827E4
:1005F0009C0189819A81822B932B9A83898389E23A
:1006000090E0FC018381882F90E029813A81822B40
:10061000932B9A8389830CC089E290E0FC0183814B
:10062000882F90E029813A81822B932B9A838983AA
:1006300089819A810F900F900F90DF91CF9108954B
:10064000CF93DF9300D0CDB7DEB79A8389831AC0EA
:10065000000089E290E0FC01828182958695877096
:10066000882F90E081709927892B99F389819A814D
:10067000FC01808161E00E94960289819A81019645
:100680009A83898389819A81FC018081882301F77B
:10069000000089E290E0FC01828182958695877056
:1006A000882F90E081709927892B99F389E290E057
:1006B0002DE0FC01238300000F900F90DF91CF917C
:1006C0000895CF93DF9300D0CDB7DEB79A838983A7
:1006D000000089E290E0FC018281881F8827881F42
:1006E000882F90E081709927892B99F389E290E017
:1006F000FC01238189819A81FC01208389819A816F
:10070000FC0180818D3031F089819A8101969A8334
:100710008983DECF000000000F900F90DF91CF9112
:100720000895CF93DF9300D0CDB7DEB79A83898346
:1007300080917E0090917F00FC0181859285FC0173
:10074000099500000F900F90DF91CF910895CF93FE
:10075000DF9300D0CDB7DEB79A83898383E590E03D
:1007600023E530E0F901408129813A81F9012081B6
:10077000242BFC01208383E590E023E530E0F901A0
:10078000408129813A81F9012181242BFC012083B8
:1007900083E590E023E530E0F901408129813A8149
:1007A000F9012281242BFC01208300000F900F907F
:1007B000DF91CF910895CF93DF9300D01F92CDB7F3
:1007C000DEB79A8389836B8389819A81FC01828158
:1007D0008033B1F42CE530E08B81882F90E04FEF2F
:1007E000489FB001499F700D112444E650E0CB01B1
:1007F000BA010E94AD0ECB018095F90180831AC029
:1008000089819A81FC0182818032A1F42CE530E05B
:100810008B81882F90E04FEF489FB001499F700D6A
:10082000112444E650E0CB01BA010E94AD0ECB0189
:10083000F901808300000F900F900F90DF91CF910E
:100840000895CF93DF93CDB7DEB781E490E021E444
:1008500030E0F90120812861FC01208381E490E0EF
:10086000FC0110820000DF91CF910895CF93DF93B8
:10087000CDB7DEB781E490E021E430E0F9012081DA
:100880002860FC01208381E490E021E430E0F9015C
:1008900020812660FC01208381E490E021E430E0A7
:1008A000F90120812E7FFC0120830000DF91CF9190
:1008B0000895CF93DF9300D0CDB7DEB79A838983B5
:1008C00089819A81909386008093850083E590E0EA
:1008D00023E530E0F90140812091850030918600C8
:1008E000F9012081242BFC01208383E590E023E59E
:1008F00030E0F90140812091850030918600F901B6
:100900002181242BFC01208389E590E029E530E05A
:10091000F90140812091850030918600F901228102
:10092000242BFC01208389E590E029E530E0F901E2
:1009300040812091850030918600F9012381242B8C
:10094000FC01208300000F900F90DF91CF9108955C
:10095000CF93DF93CDB7DEB789E590E029E530E0AE
:10096000F90120812E7FFC01208389E590E029E5B3
:1009700030E0F90120812D7FFC01208389E590E0A2
:1009800029E530E0F90120812B7FFC012083000064
:10099000DF91CF910895CF93DF9300D0CDB7DEB72D
:1009A0009A8389838CE590E0FC01208189819A817A
:1009B000FC01208300000F900F90DF91CF910895EC
:1009C000CF93DF931F92CDB7DEB789838CE590E09C
:1009D0002981FC01208300000F90DF91CF910895C1
:1009E000CF93DF9300D0CDB7DEB79A83898382E5BA
:1009F00090E0FC01208189819A81FC012083000024
:100A00000F900F90DF91CF910895CF93DF931F92B6
:100A1000CDB7DEB7898382E590E02981FC01208390
:100A200000000F90DF91CF910895CF93DF9300D016
:100A3000CDB7DEB79A8389832091820089819A811C
:100A4000FC01208300000F900F90DF91CF9108955B
:100A5000CF93DF931F92CDB7DEB7898389818093CF
:100A6000820000000F90DF91CF910895CF93DF9324
:100A700000D0CDB7DEB79A83898389819A8190931C
:100A800081008093800000000F900F90DF91CF9144
:100A90000895CF93DF9300D0CDB7DEB79A838983D3
:100AA00089819A81909384008093830000000F9045
:100AB0000F90DF91CF9108951F920F9200905F00E9
:100AC0000F9211242F933F934F935F936F937F93D4
:100AD0008F939F93AF93BF93EF93FF93CF93DF9346
:100AE000CDB7DEB78091830090918400FC01099519
:100AF0000000DF91CF91FF91EF91BF91AF919F9156
:100B00008F917F916F915F914F913F912F910F90B6
:100B100000925F000F901F9018951F920F92009007
:100B20005F000F9211242F933F934F935F936F9326
:100B30007F938F939F93AF93BF93EF93FF93CF9345
:100B4000DF93CDB7DEB7809182008F5F8093820004
:100B50008091800090918100FC0109950000DF9157
:100B6000CF91FF91EF91BF91AF919F918F917F9125
:100B70006F915F914F913F912F910F9000925F0085
:100B80000F901F901895CF93DF9300D000D01F9245
:100B9000CDB7DEB79D838C838C819D81FC018081E4
:100BA0008130A9F584E0898381E08A83CE010196B2
:100BB000BC0186E390E00E941F0885E0898381E004
:100BC0008A83CE010196BC0186E390E00E941F0853
:100BD00086E089831A82CE010196BC0186E390E00B
:100BE0000E941F0887E0898381E08A83CE010196F5
:100BF000BC0186E390E00E941F088DE290E02DE2A8
:100C000030E0F90120812061FC01208338C08C8113
:100C10009D81FC018081882391F584E089831A827B
:100C2000CE010196BC0186E390E00E941F0885E09A
:100C300089831A82CE010196BC0186E390E00E946E
:100C40001F0886E0898381E08A83CE010196BC017A
:100C500086E390E00E941F0887E089831A82CE0114
:100C60000196BC0186E390E00E941F088DE290E0AF
:100C70002DE230E0F90120812F7EFC0120838C8160
:100C80009D81FC018481882F90E0092E000CAA0B25
:100C9000BB0B40E050E026E030E0841B950B2817AA
:100CA000390708F4C9C0865D9F4FFC010C94E30E20
:100CB0008DE290E02DE230E0F90120812E7FFC01F1
:100CC00020838DE290E02DE230E0F90120812D7F3C
:100CD000FC0120838DE290E02DE230E0F9012181DA
:100CE0002160FC012183A8C08DE290E02DE230E07C
:100CF000F90120812E7FFC0120838DE290E02DE21E
:100D000030E0F90120812D7FFC0120838DE290E00D
:100D10002DE230E0F90121812E7FFC0121838CC07E
:100D20008DE290E02DE230E0F90120812160FC01AC
:100D300020838DE290E02DE230E0F90120812D7FCB
:100D4000FC0120838DE290E02DE230E0F901218169
:100D50002160FC01218370C08DE290E02DE230E043
:100D6000F90120812160FC0120838DE290E02DE2D9
:100D700030E0F90120812D7FFC0120838DE290E09D
:100D80002DE230E0F90121812E7FFC01218354C046
:100D90008DE290E02DE230E0F90120812E7FFC0110
:100DA00020838DE290E02DE230E0F9012081226085
:100DB000FC0120838DE290E02DE230E0F9012181F9
:100DC0002160FC01218338C08DE290E02DE230E00B
:100DD000F90120812E7FFC0120838DE290E02DE23D
:100DE00030E0F90120812260FC0120838DE290E057
:100DF0002DE230E0F90121812E7FFC0121831CC00E
:100E00008DE290E02DE230E0F90120812160FC01CB
:100E100020838DE290E02DE230E0F9012081226014
:100E2000FC0120838DE290E02DE230E0F901218188
:100E30002E7FFC01218300008DE290E02DE230E066
:100E4000F90120812064FC01208300000F900F90A5
:100E50000F900F900F90DF91CF910895CF93DF9374
:100E60001F92CDB7DEB789838DE290E02981FC0126
:100E7000228300008DE290E0FC0181818823D4F779
:100E800089810F90DF91CF910895CF93DF93CDB7F4
:100E9000DEB700008DE290E0FC0181818823D4F769
:100EA0008DE290E0FC018281DF91CF910895CF9394
:100EB000DF931F92CDB7DEB789838DE290E0298161
:100EC000FC01228300008DE290E0FC0181818823F7
:100ED000D4F78DE290E0FC0182810F90DF91CF91F9
:100EE00008950F931F93CF93DF9300D000D0CDB719
:100EF000DEB769837A838B839C8300E210E080E015
:100F000092E1AAE7B0E029813A814B815C81BC0182
:100F1000CD010E94C10EDA01C9014097A109B109B2
:100F2000B695A79597958795F801808381E290E023
:100F3000FC011082000000000F900F900F900F90A6
:100F4000DF91CF911F910F910895CF93DF93CDB78C
:100F5000DEB786E590E024EAFC012083000086E508
:100F600090E0FC0180818823D4F7000081E290E0CA
:100F7000FC0180818830D1F70000DF91CF91089586
:100F8000CF93DF931F92CDB7DEB7898383E290E0E2
:100F90002981FC01208386E590E024E8FC01208380
:100FA000000086E590E0FC0180818823D4F70000F2
:100FB0000F90DF91CF910895CF93DF93CDB7DEB738
:100FC00086E590E024E9FC0120830000DF91CF91C9
:100FD0000895CF93DF931F92CDB7DEB7898382E266
:100FE00090E02981FC01208300000F90DF91CF91D8
:100FF0000895CF93DF931F92CDB7DEB7898386E53F
:1010000090E02981222F30E000243695279507941F
:10101000369527950794322F202D2468FC012083D4
:10102000000086E590E0FC0180818823D4F783E20C
:1010300090E0FC0180810F90DF91CF910895CF93D4
:10104000DF9300D000D0CDB7DEB79A8389837C834D
:101050006B838B819C81FC0181818130C9F4898102
:101060009A81FC018181482F8B819C81FC018081C8
:10107000282F30E081E090E002C0880F991F2A9568
:10108000E2F7842B282F89819A81FC0121831FC0DC
:101090008B819C81FC0181818823C9F489819A819B
:1010A000FC018181482F8B819C81FC018081282F4C
:1010B00030E081E090E002C0880F991F2A95E2F7A6
:1010C00080958423282F89819A81FC0121838B813B
:1010D0009C81FC0182818130C9F489819A81FC0163
:1010E0008281482F8B819C81FC018081282F30E0F8
:1010F00081E090E002C0880F991F2A95E2F7842BC7
:10110000282F89819A81FC0122831FC08B819C81B9
:10111000FC0181818823C9F489819A81FC01828143
:10112000482F8B819C81FC018081282F30E081E059
:1011300090E002C0880F991F2A95E2F780958423DA
:10114000282F89819A81FC01228300000F900F9043
:101150000F900F90DF91CF910895CF93DF9300D040
:1011600000D0CDB7DEB79B838A836C838A819B8155
:10117000FC018081882F90E02C81222F30E002C07A
:10118000959587952A95E2F781709927892B19F013
:1011900081E0898301C0198289810F900F900F909F
:1011A0000F90DF91CF910895CF93DF9300D01F92DE
:1011B000CDB7DEB79B838A838A819B81FC018081C6
:1011C000898389810F900F900F90DF91CF910895BF
:1011D000CF93DF9300D000D0CDB7DEB79A83898359
:1011E0006B834C838C818130B1F489819A81FC01BD
:1011F0008281482F8B81282F30E081E090E002C06F
:10120000880F991F2A95E2F7842B282F89819A81CC
:10121000FC01228319C08C818823B1F489819A81D1
:10122000FC018281482F8B81282F30E081E090E003
:1012300002C0880F991F2A95E2F780958423282FF2
:1012400089819A81FC01228300000F900F900F90FA
:101250000F90DF91CF910895CF93DF9300D01F922D
:10126000CDB7DEB79A8389836B8389819A812B817D
:10127000FC01228300000F900F900F90DF91CF911F
:101280000895CF93DF9300D01F92CDB7DEB79A8336
:1012900089836B8389819A81FC018281482F8B81AC
:1012A000282F30E081E090E002C0880F991F2A9536
:1012B000E2F78427282F89819A81FC01228300008C
:1012C0000F900F900F90DF91CF910895CF93DF9300
:1012D00000D0CDB7DEB789836A838981882F90E0FB
:1012E00081309105C1F08230910541F1892BC9F51A
:1012F00087E290E027E230E0F90120812F7BFC01BA
:10130000208387E290E027E230E0F90120812F7707
:10131000FC01208326C087E290E027E230E0F9015B
:1013200020812064FC01208387E290E027E230E006
:10133000F90120812F77FC01208313C087E290E020
:1013400027E230E0F90120812064FC01208387E25C
:1013500090E027E230E0F90120812068FC01208341
:10136000000086E290E026E230E0F90130812A8137
:10137000232BFC01208386E290E026E230E0F90195
:1013800020812068FC01208300000F900F90DF91E6
:10139000CF910895CF93DF9300D01F92CDB7DEB7E2
:1013A0008B831A82198287E290E027E230E0F9010C
:1013B00030812B81232BFC01208386E290E026E202
:1013C00030E0F90120812064FC012083000086E2E6
:1013D00090E0FC0180818295869586958370882FA8
:1013E00090E081709927892B91F784E290E0FC01CD
:1013F0008081282F30E085E290E0FC018081882FF9
:1014000090E083709927982F8827822B932B9C013B
:1014100089819A81822B932B9A83898389819A81EE
:101420000F900F900F90DF91CF910895CF93DF939E
:1014300000D000D01F92CDB7DEB78D838D810E9482
:10144000CA099A83898389819A819C0140E050E08E
:1014500084E690E0DC010E94E90EDC01CB012FEF75
:1014600033E040E050E0BC01CD010E94C10EDA0142
:10147000C9019C838B838B819C810F900F900F906F
:101480000F900F90DF91CF910895CF93DF93CDB759
:10149000DEB72C970FB6F894DEBF0FBECDBF6987BD
:1014A0007A878B879C8719821A821B821C8228C0AC
:1014B0001D821E821F8218860BC08D819E81AF8186
:1014C000B8850196A11DB11D8D839E83AF83B8871A
:1014D0002D813E814F81588589859A85AB85BC8554
:1014E000281739074A075B0740F389819A81AB8146
:1014F000BC810196A11DB11D89839A83AB83BC83F6
:1015000029813A814B815C8189859A85AB85BC852F
:10151000281739074A075B0758F200002C960FB6C8
:10152000F894DEBF0FBECDBFDF91CF910895CF936A
:10153000DF93CDB7DEB740E062E089E390E00E9440
:10154000E80864E170E080E090E00E94450A41E034
:1015500062E089E390E00E94E8080000DF91CF910B
:101560000895CF93DF9300D01F92CDB7DEB781E00F
:10157000898381E08A83CE010196BC0189E390E0F2
:101580000E941F0882E0898381E08A83CE01019650
:10159000BC0189E390E00E941F0884E0898381E018
:1015A0008A83CE010196BC0189E390E00E941F0866
:1015B00085E0898381E08A83CE010196BC0189E3BD
:1015C00090E00E941F0886E0898381E08A83CE0133
:1015D0000196BC0189E390E00E941F0887E089839F
:1015E00081E08A83CE010196BC0189E390E00E94EC
:1015F0001F0840E062E089E390E00E94E80840E0D4
:1016000061E089E390E00E94E80889E390E02EE73A
:10161000FC01218300000F900F900F90DF91CF917C
:101620000895CF93DF93CDB7DEB764E170E080E03B
:1016300090E00E94450A0E94B10A6FE070E080E0ED
:1016400090E00E94450A0E94570C82E00E94380BED
:1016500088E20E94380B86E00E94380B80E80E94E6
:10166000380B8FE00E94380B0000DF91CF91089576
:10167000CF93DF931F92CDB7DEB7898389E390E0E4
:10168000FC018281282F27788981882F90E0807F34
:10169000992795958795822B682F89E390E00E9482
:1016A0002C0940E061E089E390E00E94E80862E3F1
:1016B00070E080E090E00E94450A0E94970A89E36A
:1016C00090E0FC018281282F27788981882F90E083
:1016D0008F709927880F991F880F991F880F991F5E
:1016E000822B682F89E390E00E942C0940E061E0A2
:1016F00089E390E00E94E80862E370E080E090E017
:101700000E94450A0E94970A00000F90DF91CF9136
:101710000895CF93DF931F92CDB7DEB7898389E316
:1017200090E0FC018281282F27788981082E000C07
:10173000990B807F992795958795822B682F89E350
:1017400090E00E942C0941E061E089E390E00E9472
:10175000E8086AE070E080E090E00E94450A0E949C
:10176000970A89E390E0FC018281282F27788981FC
:10177000082E000C990B8F709927880F991F880FDE
:10178000991F880F991F822B682F89E390E00E9490
:101790002C0941E061E089E390E00E94E8086AE0FA
:1017A00070E080E090E00E94450A0E94970A0000E5
:1017B0000F90DF91CF910895CF93DF9300D000D0A9
:1017C000CDB7DEB79C838B831A82198225C08B81AB
:1017D0009C819C012F5F3F4F3C832B83FC018081C8
:1017E0000E94890B89819A8101969A8389838981D4
:1017F0009A81409729F460E082E00E94620C0CC05C
:1018000089819A81809741F40E94570C60E081E0C1
:101810000E94620C1A8219828B819C81FC0180815A
:101820008823A9F600000F900F900F900F90DF9182
:10183000CF910895CF93DF9300D01F92CDB7DEB73D
:1018400084E089831A82CE010196BC0189E390E08D
:101850000E941F0885E089831A82CE010196BC018F
:1018600089E390E00E941F0886E089831A82CE01F6
:101870000196BC0189E390E00E941F0887E08983FC
:101880001A82CE010196BC0189E390E00E941F08F4
:1018900040E061E089E390E00E94E8080E94970A36
:1018A00000000F900F900F90DF91CF910895CF938C
:1018B000DF93CDB7DEB781E00E94380B0000DF91E7
:1018C000CF910895CF93DF9300D0CDB7DEB7898352
:1018D0006A838981813041F48A81803178F48A81F8
:1018E00080580E94380B0AC08981823039F48A817D
:1018F000803120F48A8180540E94380B00000F90C0
:101900000F90DF91CF910895CF93DF9300D01F9276
:10191000CDB7DEB784E0898381E08A83CE0101966A
:10192000BC0186E390E00E941F0885E0898381E086
:101930008A83CE010196BC0186E390E00E941F08D5
:1019400086E0898381E08A83CE010196BC0186E32B
:1019500090E00E941F0887E0898381E08A83CE019E
:101960000196BC0186E390E00E941F0882E0898313
:101970001A8281E08B83CE010196BC0180E390E066
:101980000E941F0883E089831A8281E08B83CE0145
:101990000196BC0180E390E00E941F0884E08983E7
:1019A0001A8281E08B83CE010196BC0180E390E036
:1019B0000E941F0885E089831A8281E08B83CE0113
:1019C0000196BC0180E390E00E941F086FEF86E360
:1019D00090E00E942C096FEF80E390E00E942C09B8
:1019E00000000F900F900F90DF91CF910895CF934B
:1019F000DF9300D000D0CDB7DEB71A821982D5C0F0
:101A000041E064E086E390E00E94E80841E065E0A0
:101A100086E390E00E94E80841E066E086E390E01B
:101A20000E94E80841E067E086E390E00E94E80851
:101A300089819A81880F991F805A9F4FFC0180816C
:101A4000918140E0682F86E390E00E94E8081C82C4
:101A50001B82A1C08B819C81880F991F88599F4F41
:101A6000FC0180819181682F80E390E00E94AD08A5
:101A7000882309F08BC000008B819C81880F991FFF
:101A800088599F4FFC0180819181682F80E390E00D
:101A90000E94AD08882381F389819A818130910564
:101AA00031F1823091051CF4892B41F06FC08230F6
:101AB0009105A9F1039709F44AC068C08B819C8104
:101AC000892B11F487E377C08B819C81019711F4F6
:101AD00088E371C08B819C81029711F489E36BC00C
:101AE0008B819C81039709F04AC08FE264C08B818F
:101AF0009C81892B11F484E35EC08B819C810197CA
:101B000011F485E358C08B819C81029711F486E320
:101B100052C08B819C810397A1F58AE24CC08B81D6
:101B20009C81892B11F481E346C08B819C810197B4
:101B300011F482E340C08B819C81029711F483E30E
:101B40003AC08B819C810397F1F48DE234C08B8184
:101B50009C81892B11F481E22EC08B819C8101979D
:101B600011F480E328C08B819C81029711F48DE3EE
:101B700022C08B819C81039741F48BE21CC0000042
:101B800005C0000003C0000001C000008B819C81E3
:101B900001969C838B838B819C8104970CF45ACF94
:101BA00089819A8101969A83898389819A81049790
:101BB0000CF426CF8EE40F900F900F900F90DF91D2
:101BC000CF910895CF93DF93CDB7DEB76C970FB663
:101BD000F894DEBF0FBECDBF0E94110B67E081E01D
:101BE0000E94660980E00E94CA099A8389838981DC
:101BF0009A81CC01A0E0B0E0BC01CD010E944B0F66
:101C0000DC01CB0123E23BED49EF5EE3BC01CD01FA
:101C10000E94DA0FDC01CB01BC01CD010E941C0F38
:101C2000DC01CB019C838B8380E790E00E94DC0B7E
:101C30008C818F938B818F9387E790E0892F8F938F
:101C400087E790E08F93CE014396292F2F938F93B0
:101C50000E946F100F900F900F900F900F900F90A9
:101C6000CE0143960E94DC0B8AE790E00E94DC0BD9
:101C700080E090E0AAE7B4E48D839E83AF83B887C9
:101C800020E030E04AEF54E46D817E818F819885B9
:101C90000E94DA0FDC01CB0189879A87AB87BC876A
:101CA00020E030E040E85FE369857A858B859C859C
:101CB0000E94170F88232CF481E090E09E878D8787
:101CC0003FC020E03FEF4FE757E469857A858B8579
:101CD0009C850E94D50F18164CF520E030E040E2BC
:101CE00051E46D817E818F8198850E94DA0FDC013D
:101CF000CB01BC01CD010E941C0FDC01CB019E87F2
:101D00008D870FC088EC90E0988B8F878F8598899E
:101D10000197F1F7988B8F878D859E8501979E8718
:101D20008D878D859E85892B69F714C069857A8595
:101D30008B859C850E941C0FDC01CB019E878D87C3
:101D40008D859E859A8B898B89899A890197F1F770
:101D50009A8B898B0E94570C45CF97FB072E16F460
:101D6000009407D077FD09D00E94F40E07FC05D03F
:101D70003EF4909581959F4F0895709561957F4FA2
:101D80000895A1E21A2EAA1BBB1BFD010DC0AA1FBC
:101D9000BB1FEE1FFF1FA217B307E407F50720F0D4
:101DA000A21BB30BE40BF50B661F771F881F991F4F
:101DB0001A9469F760957095809590959B01AC0198
:101DC000BD01CF010895EE0FFF1F0590F491E02DA6
:101DD00009940E94080FA59F900DB49F900DA49F99
:101DE000800D911D11240895AA1BBB1B51E107C052
:101DF000AA1FBB1FA617B70710F0A61BB70B881F9B
:101E0000991F5A95A9F780959095BC01CD01089529
:101E1000A29FB001B39FC001A39F700D811D11242B
:101E2000911DB29F700D811D1124911D08950E9476
:101E3000880F08F481E008950E94B40F88F09F573E
:101E400098F0B92F9927B751B0F0E1F0660F771FDE
:101E5000881F991F1AF0BA95C9F714C0B13091F0D4
:101E60000E94CE0FB1E008950C94CE0F672F782F0B
:101E70008827B85F39F0B93FCCF386957795679599
:101E8000B395D9F73EF490958095709561957F4F05
:101E90008F4F9F4F0895E89409C097FB3EF49095AB
:101EA0008095709561957F4F8F4F9F4F9923A9F033
:101EB000F92F96E9BB279395F695879577956795C2
:101EC000B795F111F8CFFAF4BB0F11F460FF1BC006
:101ED0006F5F7F4F8F4F9F4F16C0882311F096E999
:101EE00011C0772321F09EE8872F762F05C0662347
:101EF00071F096E8862F70E060E02AF09A95660F00
:101F0000771F881FDAF7880F9695879597F90895B8
:101F1000990F0008550FAA0BE0E8FEEF16161706FA
:101F2000E807F907C0F012161306E407F50798F062
:101F3000621B730B840B950B39F40A2661F0232B7B
:101F4000242B252B21F408950A2609F4A140A695F7
:101F50008FEF811D811D089557FD9058440F551F27
:101F600059F05F3F71F04795880F97FB991F61F01B
:101F70009F3F79F087950895121613061406551F92
:101F8000F2CF4695F1DF08C0161617061806991FFE
:101F9000F1CF86957105610508940895E894BB27F3
:101FA00066277727CB0197F908950E94880F08F4D8
:101FB0008FEF08950E94ED0F0C945E100E94501058
:101FC00038F00E94571020F0952311F00C94471020
:101FD0000C944D1011240C94CF0F0E94AC0F70F391
:101FE000959FC1F3950F50E0551F629FF001729FBE
:101FF000BB27F00DB11D639FAA27F00DB11DAA1FCD
:10200000649F6627B00DA11D661F829F2227B00D19
:10201000A11D621F739FB00DA11D621F839FA00DA4
:10202000611D221F749F3327A00D611D231F849FF4
:10203000600D211D822F762F6A2F11249F5750404B
:102040009AF0F1F088234AF0EE0FFF1FBB1F661FC6
:10205000771F881F91505040A9F79E3F510580F08F
:102060000C9447100C94CF0F5F3FE4F3983ED4F3E9
:10207000869577956795B795F795E7959F5FC1F733
:10208000FE2B880F911D9695879597F9089597F9DE
:102090009F6780E870E060E008959FEF80EC08950E
:1020A00000240A9416161706180609060895002437
:1020B0000A9412161306140605060895092E0394B1
:1020C000000C11F4882352F0BB0F40F4BF2B11F425
:1020D00060FF04C06F5F7F4F8F4F9F4F0895AEE04A
:1020E000B0E0E5E7F0E10C9430130D891E8986E03D
:1020F0008C831A8309838FEF9FE79E838D83AE01C4
:10210000475E5F4F6F89788DCE0101960E949110D6
:10211000EF81F885E00FF11F10822E96E4E00C9419
:102120004C13ABE0B0E0E7E9F0E10C9422136C0152
:102130007B018A01FC0117821682838181FFCCC159
:10214000CE0101963C01F6019381F70193FD859143
:1021500093FF81917F01882309F4BAC1853239F454
:1021600093FD859193FF81917F01853229F4B6011A
:1021700090E00E948812E7CF912C212C312CFFE1B6
:10218000F315D8F08B3279F038F4803279F083325D
:10219000A1F4232D20611DC08D3261F0803369F4DC
:1021A000232D216016C0832D8260382EE32DE4603C
:1021B0003E2E2AC0F32DF8601DC037FC2DC020ED47
:1021C000280F2A3040F08E32B9F436FC81C1232D1D
:1021D0002064322E19C036FE06C08AE0989E200D7B
:1021E0001124922E11C0EAE02E9E200D1124222EE1
:1021F000F32DF0623F2E08C08C3621F4832D8068C9
:10220000382E02C0883641F4F70193FD859193FF83
:1022100081917F018111B3CF982F9F7D9554933089
:1022200028F40C5F1F4F9FE399830DC0833631F074
:10223000833771F0833509F059C021C0F8018081DE
:1022400089830E5F1F4F88248394912C530113C000
:102250002801F2E04F0E511CF801A080B18036FE3B
:1022600003C0692D70E002C06FEF7FEFC5010E94CF
:102270007D124C018201F32DFF773F2E16C02801FD
:1022800022E0420E511CF801A080B18036FE03C04E
:10229000692D70E002C06FEF7FEFC5010E947212DE
:1022A0004C01F32DF0683F2E820133FC1BC0822DC0
:1022B00090E088169906B0F4B60180E290E00E94A2
:1022C00088122A94F4CFF50137FC859137FE81916D
:1022D0005F01B60190E00E94881221102A9421E04B
:1022E000821A91088114910471F7E8C0843611F0C4
:1022F000893641F5F80137FE07C06081718182811E
:1023000093810C5F1F4F08C060817181072E000C04
:10231000880B990B0E5F1F4FF32DFF763F2E97FF13
:1023200009C090958095709561957F4F8F4F9F4F15
:10233000F0683F2E2AE030E0A3010E94C412882EEC
:10234000861845C0853731F4232D2F7EB22E2AE022
:1023500030E025C0932D997FB92E8F36C1F018F447
:10236000883579F0B5C0803719F0883721F0B0C0D2
:10237000E92FE061BE2EB4FE0DC0FB2DF460BF2E30
:1023800009C034FE0AC0292F2660B22E06C028E0FC
:1023900030E005C020E130E002C020E132E0F80189
:1023A000B7FE07C060817181828193810C5F1F4FEE
:1023B00006C06081718180E090E00E5F1F4FA30135
:1023C0000E94C412882E8618FB2DFF773F2E36FE02
:1023D0000DC0232D2E7FA22E891458F434FE0BC07D
:1023E00032FC09C0832D8E7EA82E05C0B82CA32CEC
:1023F00003C0B82C01C0B92CA4FE0FC0FE01E80D2B
:10240000F11D8081803321F49A2D997EA92E09C077
:10241000A2FE06C0B394B39404C08A2D867809F056
:10242000B394A3FC11C0A0FE06C0B21488F4280C1B
:10243000922C9B180EC0B21460F4B60180E290E0BA
:102440000E948812B394F7CFB21418F42B1802C06C
:10245000982C212CA4FE10C0B60180E390E00E94CD
:102460008812A2FE17C0A1FC03C088E790E002C05A
:1024700088E590E0B6010CC08A2D867859F0A1FE5F
:1024800002C08BE201C080E2A7FC8DE2B60190E0C1
:102490000E948812891438F4B60180E390E00E940B
:1024A00088129A94F7CF8A94F301E80DF11D808188
:1024B000B60190E00E9488128110F5CF222009F425
:1024C00042CEB60180E290E00E9488122A94F6CFB4
:1024D000F6018681978102C08FEF9FEF2B96E2E194
:1024E0000C943E13FC010590615070400110D8F728
:1024F000809590958E0F9F1F0895FC01615070404C
:1025000001900110D8F7809590958E0F9F1F089528
:102510000F931F93CF93DF93FB01238121FD03C012
:102520008FEF9FEF2CC022FF16C046815781248178
:1025300035814217530744F4A081B1819D012F5F7B
:102540003F4F318320838C93268137812F5F3F4F0C
:102550003783268314C08B01EC01FB010084F185D5
:10256000E02D0995892BE1F6D80116968D919C9165
:102570001797019617969C938E931697CE01DF912D
:10258000CF911F910F910895FA01AA27283051F198
:10259000203181F1E8946F936E7F6E5F7F4F8F4F94
:1025A0009F4FAF4FB1E03ED0B4E03CD0670F781FF3
:1025B000891F9A1FA11D680F791F8A1F911DA11DD8
:1025C0006A0F711D811D911DA11D20D009F4689411
:1025D0003F912AE0269F11243019305D3193DEF6B9
:1025E000CF010895462F4770405D4193B3E00FD06F
:1025F000C9F7F6CF462F4F70405D4A3318F0495D5A
:1026000031FD4052419302D0A9F7EACFB4E0A6953C
:102610009795879577956795BA95C9F7009761055E
:10262000710508959B01AC010A2E069457954795B4
:1026300037952795BA95C9F7620F731F841F951FA9
:10264000A01D08952F923F924F925F926F927F92BA
:102650008F929F92AF92BF92CF92DF92EF92FF92B2
:102660000F931F93CF93DF93CDB7DEB7CA1BDB0B5E
:102670000FB6F894DEBF0FBECDBF09942A88398803
:1026800048885F846E847D848C849B84AA84B9840A
:10269000C884DF80EE80FD800C811B81AA81B98116
:1026A000CE0FD11D0FB6F894DEBF0FBECDBFED012A
:0626B0000895F894FFCF2D
:1026B60004000500060007000200030004000500F0
:0E26C60054454D50203A00256400204300008A
:00000001FF
