:100000000C942A000C9434000C9434000C943400AA
:100010000C9434000C9434000C9434000C94340090
:100020000C9434000C9434000C9434000C94340080
:100030000C9434000C9434000C9434000C94340070
:100040000C9434000C9434000C9434000C94340060
:100050000C94340011241FBECFE5D8E0DEBFCDBF25
:100060000E94A5000C94E8000C940000CF93DF934D
:1000700000D000D000D0CDB7DEB79E838D831A822A
:10008000198214C01C821B8205C08B819C81019641
:100090009C838B832B813C818D819E81281739071E
:1000A000A4F389819A8101969A83898329813A816F
:1000B0008D819E81281739072CF3000026960FB6F4
:1000C000F894DEBF0FBECDBFDF91CF910895CF93DF
:1000D000DF93CDB7DEB784E390E024E330E0F901AD
:1000E00020812460FC01208384E390E024E330E05D
:1000F000F90120812860FC01208384E390E024E35F
:1001000030E0F90120812061FC01208384E390E04C
:1001100024E330E0F90120812062FC01208384E3A4
:1001200090E024E330E0F90120812064FC01208389
:1001300084E390E024E330E0F90120812068FC01B1
:1001400020830000DF91CF910895CF93DF9300D0FB
:1001500000D0CDB7DEB70E9467001A82198233C083
:100160001C821B8227C085E390E029813A81229579
:100170003295307F3227207F32272B60FC0120838D
:100180008AEF90E00E94360085E390E02B813C816D
:1001900022953295307F3227207F32272760FC015D
:1001A00020838AEF90E00E9436008B819C8101962B
:1001B0009C838B838B819C810A97ACF289819A8185
:1001C00001969A83898389819A810A974CF2C5CFD7
:0401D000F894FFCFD1
:00000001FF
